:100000000C942A000C943F000C943F000C943F0089
:100010000C943F000C943F000C943F000C943F0064
:100020000C943F000C943F000C943F000C943F0054
:100030000C943F000C943F000C943F000C943F0044
:100040000C943F000C943F000C943F000C943F0034
:100050000C943F0011241FBECFE5D8E0DEBFCDBF1A
:1000600010E0A0E6B0E0E0EBF4E302C005900D92F2
:10007000AE3FB107D9F70E94100F0C94561A0C949A
:100080000000EF92FF920F931F937B018C0120E001
:1000900030E040E05FE40E94ED0388238CF0C8016B
:1000A000B70120E030E040E05FE40E94B9010E9427
:1000B0004D049B01AC01205030404040504806C0E8
:1000C000C801B7010E944D049B01AC01B901CA01EE
:1000D0001F910F91FF90EF900895A0E0B0E0E3E74B
:1000E000F0E00C941F1ADC012B01FA019C91923074
:1000F00008F439C1EB018881823008F433C19430AF
:1001000069F4843009F02FC111969C91119789816F
:10011000981709F428C1AEE8B0E025C1843009F48D
:1001200021C18230A9F4923009F01DC19A01AD01BC
:1001300088E0EA010990AE01E90109929E0181502F
:10014000C1F7E201898111969C918923818308C1BD
:10015000923009F407C112962D903C901397EB0151
:100160008A819B811496AD90BD90CD90DC901797BD
:10017000EC80FD800E811F819101281B390BB90194
:1001800037FF04C066277727621B730B6032710547
:100190000CF061C0121613066CF537014801062EEB
:1001A00004C096948794779467940A94D2F721E0D8
:1001B00030E040E050E004C0220F331F441F551FC1
:1001C0006A95D2F721503040404050402E213F21C7
:1001D00040235123211531054105510521F021E02E
:1001E00030E040E050E079018A01E628F72808294C
:1001F00019293CC0232BD1F1260E371E35014601AB
:10020000062E04C096948794779467940A94D2F744
:1002100021E030E040E050E004C0220F331F441FD3
:10022000551F6A95D2F721503040404050402A2156
:100230003B214C215D21211531054105510521F05E
:1002400021E030E040E050E059016A01A628B728DB
:10025000C828D9280BC0821593052CF01C01AA24AC
:10026000BB24650103C0EE24FF24870111969C91F5
:10027000D20111968C91981709F445C0992339F051
:10028000A80197012A193B094C095D0906C0A6017E
:1002900095012E193F09400B510B57FD08C01182E3
:1002A0003382228224833583468357831DC081E0B5
:1002B00081833382228288279927DC01821B930B5A
:1002C000A40BB50B84839583A683B7830DC0220F3F
:1002D000331F441F551F24833583468357838281F0
:1002E000938101979383828324813581468157814D
:1002F000DA01C9010197A109B1098F5F9F4FAF4F83
:10030000BF4328F30BC0918333822282EA0CFB1C8B
:100310000C1D1D1DE482F5820683178383E0808314
:10032000248135814681578157FF1AC0C901AA2708
:1003300097FDA095BA2F81709070A070B0705695FF
:10034000479537952795822B932BA42BB52B848328
:100350009583A683B7838281938101969383828359
:10036000DF0101C0D201CD01CDB7DEB7E2E10C94CF
:100370003B1AA0E2B0E0EFEBF1E00C942B1A69839A
:100380007A838B839C832D833E834F835887E9E058
:10039000EE2EF12CEC0EFD1ECE010196B7010E944F
:1003A00076058E010F5E1F4FCE010596B8010E94A3
:1003B00076058A8991E089278A8BC701B801AE0149
:1003C000475E5F4F0E946D000E94A104A096E6E088
:1003D0000C94471AA0E2B0E0E0EFF1E00C942B1A85
:1003E00069837A838B839C832D833E834F835887D5
:1003F000F9E0EF2EF12CEC0EFD1ECE010196B701B7
:100400000E9476058E010F5E1F4FCE010596B80142
:100410000E947605C701B801AE01475E5F4F0E949A
:100420006D000E94A104A096E6E00C94471AA0E299
:10043000B0E0EDE1F2E00C941F1A69837A838B83BC
:100440009C832D833E834F835887CE010196BE0146
:10045000675F7F4F0E947605CE010596BE016F5EF5
:100460007F4F0E9476059985923088F08989823085
:10047000C8F0943019F4823051F404C0843029F467
:10048000923081F48EE890E0C6C0923049F420E0CA
:100490009A858A89981321E02A87CE010996BBC0E4
:1004A000823049F420E09A858A89981321E02A8BCA
:1004B000CE014196B0C02D843E844F8458886D880B
:1004C0007E888F88988CEE24FF248701AA24BB2481
:1004D000650140E050E060E070E0E0E0F0E0C10184
:1004E00081709070892BE9F0E60CF71C081D191D2E
:1004F0009A01AB012A0D3B1D4C1D5D1D80E090E073
:10050000A0E0B0E0E614F7040805190520F481E046
:1005100090E0A0E0B0E0BA01A901480F591F6A1F9E
:100520007B1FAA0CBB1CCC1CDD1C97FE08C081E005
:1005300090E0A0E0B0E0A82AB92ACA2ADB2A3196C6
:10054000E032F10549F0660C771C881C991C569422
:10055000479437942794C3CFFA85EA892B893C893D
:100560008B859C85280F391F2E5F3F4F17C0CA010E
:1005700081709070892B61F016950795F794E79438
:1005800080E090E0A0E0B0E8E82AF92A0A2B1B2BD3
:1005900076956795579547952F5F3F4F77FDE7CF46
:1005A0000CC0440F551F661F771F17FD4160EE0CEE
:1005B000FF1C001F111F21503040403090E05907B0
:1005C00090E0690790E4790760F32B8F3C8FDB01A3
:1005D000CA018F779070A070B07080349105A1052A
:1005E000B10561F447FD0AC0E114F10401051105EC
:1005F00029F0405C5F4F6F4F7F4F40781A8EFE1797
:1006000011F081E08A8F4D8F5E8F6F8F78A383E02A
:10061000898FCE0149960E94A104A096E2E10C9434
:100620003B1AA8E1B0E0E7E1F3E00C94271A6983F4
:100630007A838B839C832D833E834F835887B9E0D5
:10064000EB2EF12CEC0EFD1ECE010196B7010E949F
:1006500076058E010F5E1F4FCE010596B8010E94F0
:1006600076052985223008F47EC03989323010F4AD
:10067000B8017CC08A859A8989278A87243011F03D
:10068000223031F4231709F06EC06EE870E06EC0BE
:10069000343039F41D861E861F86188A1C861B86F8
:1006A00004C0323021F484E08987B7015FC02B8514
:1006B0003C858B899C89281B390B3C872B87ED84D3
:1006C000FE840F851889AD88BE88CF88D88CEA143F
:1006D000FB040C051D0540F4EE0CFF1C001F111F50
:1006E000215030403C872B8720E030E040E050E054
:1006F00080E090E0A0E0B0E460E070E0EA14FB0489
:100700000C051D0540F0282B392B4A2B5B2BEA18D2
:10071000FB080C091D09B695A79597958795EE0CD2
:10072000FF1C001F111F6F5F7F4F6F31710531F785
:10073000DA01C9018F779070A070B0708034910594
:10074000A105B10561F427FD0AC0E114F10401051A
:10075000110529F0205C3F4F4F4F5F4F20782D87C8
:100760003E874F87588BBE01675F7F4FCB010E944A
:10077000A1046896EAE00C94431AA8E1B0E0E3EC27
:10078000F3E00C942B1A69837A838B839C832D83EB
:100790003E834F83588789E0E82EF12CEC0EFD1E36
:1007A000CE010196B7010E9476058E010F5E1F4FA4
:1007B000CE010596B8010E9476058985823040F009
:1007C0008989823028F0C701B8010E94EE0501C076
:1007D0008FEF6896E6E00C94471AA8E1B0E0E3EFEB
:1007E000F3E00C942B1A69837A838B839C832D838B
:1007F0003E834F83588789E0E82EF12CEC0EFD1ED6
:10080000CE010196B7010E9476058E010F5E1F4F43
:10081000CE010596B8010E9476058985823040F0A8
:100820008989823028F0C701B8010E94EE0501C015
:100830008FEF6896E6E00C94471AA8E1B0E0E3E297
:10084000F4E00C942B1A69837A838B839C832D8329
:100850003E834F83588789E0E82EF12CEC0EFD1E75
:10086000CE010196B7010E9476058E010F5E1F4FE3
:10087000CE010596B8010E9476058985823040F048
:100880008989823028F0C701B8010E94EE0501C0B5
:1008900081E06896E6E00C94471AACE0B0E0E3E54E
:1008A000F4E00C942F1A69837A838B839C83CE01A6
:1008B0000196BE016B5F7F4F0E9476058D8182306D
:1008C00061F1823050F1843021F48E81882351F11E
:1008D0002EC02F81388537FD20C06E812F31310524
:1008E0001CF06623F9F023C08EE190E0821B930B8D
:1008F00029853A854B855C8504C056954795379583
:1009000027958A95D2F76623B1F05095409530959A
:1009100021953F4F4F4F5F4F0EC020E030E040E049
:1009200050E009C02FEF3FEF4FEF5FE704C020E03A
:1009300030E040E050E8B901CA012C96E2E00C94A6
:100940004B1ADF92EF92FF920F931F93FC01E4800A
:10095000F58006811781D1808081823048F480E063
:1009600090E0A0E1B0E0E82AF92A0A2B1B2BA5C0F1
:10097000843009F49FC0823021F4EE24FF248701E3
:1009800005C0E114F1040105110519F4E0E0F0E0FF
:1009900096C0628173819FEF623879070CF05BC06B
:1009A00022E83FEF261B370B2A3131052CF020E0DF
:1009B00030E040E050E02AC0B801A701022E04C098
:1009C00076956795579547950A94D2F781E090E020
:1009D000A0E0B0E004C0880F991FAA1FBB1F2A9592
:1009E000D2F70197A109B1098E219F21A023B1233C
:1009F0000097A105B10521F081E090E0A0E0B0E012
:100A00009A01AB01282B392B4A2B5B2BDA01C90148
:100A10008F779070A070B07080349105A105B105FA
:100A200039F427FF09C0205C3F4F4F4F5F4F04C090
:100A3000215C3F4F4F4F5F4FE0E0F0E02030A0E0FF
:100A40003A07A0E04A07A0E45A0710F0E1E0F0E01E
:100A500079018A0127C06038710564F5FB01E1580E
:100A6000FF4FD801C7018F779070A070B0708034AD
:100A70009105A105B10539F4E7FE0DC080E490E0D1
:100A8000A0E0B0E004C08FE390E0A0E0B0E0E80EAA
:100A9000F91E0A1F1B1F17FF05C016950795F7942F
:100AA000E794319687E016950795F794E7948A9531
:100AB000D1F705C0EE24FF248701EFEFF0E06E2FA1
:100AC000679566276795902F9F77D794DD24D794F5
:100AD0008E2F8695492F462B582F5D29B701CA01C5
:100AE0001F910F91FF90EF90DF900895FC01DB01C3
:100AF000408151812281622F6F7770E0221F22276F
:100B0000221F9381892F880F822B282F30E0991F75
:100B10009927991F11969C93119721153105A9F5D5
:100B2000411551056105710511F482E037C082E875
:100B30009FEF13969C938E9312979A01AB0167E0F7
:100B4000220F331F441F551F6A95D1F783E08C9302
:100B50000DC0220F331F441F551F12968D919C917B
:100B60001397019713969C938E931297203080E0F1
:100B7000380780E0480780E4580758F314962D930F
:100B80003D934D935C93179708952F3F310579F46A
:100B9000411551056105710519F484E08C930895A0
:100BA00064FF03C081E08C9312C01C9210C02F57C9
:100BB000304013963C932E93129783E08C9387E0FA
:100BC000440F551F661F771F8A95D1F770641496DE
:100BD0004D935D936D937C93179708951F93DC015C
:100BE000FB019C91923008F447C08081823008F468
:100BF00043C0943051F411961C91843099F5818151
:100C0000682F70E0611B71093FC0843021F0923081
:100C100031F48230B9F18181882389F12DC0119698
:100C20001C9111978230F1F081811817D9F4129636
:100C30002D913C911397828193818217930794F0B1
:100C400028173907BCF014968D919D910D90BC9199
:100C5000A02D2481358146815781281739074A07FD
:100C60005B0718F4112341F00AC082179307A40709
:100C7000B50740F4112319F061E070E005C06FEF93
:100C80007FEF02C060E070E0CB011F910895DF9319
:100C9000CF9300D000D0CDB7DEB789836A83898136
:100CA000282F30E03C832B838B819C8182309105FF
:100CB000D9F02B813C812330310534F48B819C8128
:100CC0008130910561F01EC02B813C8123303105BC
:100CD00081F08B819C818430910581F013C0EAE31F
:100CE000F0E08A8180830EC0E7E3F0E08A818083B0
:100CF00009C0E4E3F0E08A81808304C0E1E3F0E02E
:100D00008A8180830F900F900F900F90CF91DF9189
:100D10000895DF93CF93CDB7DEB727970FB6F8943A
:100D2000DEBF0FBECDBF89836A834B838B81813049
:100D300009F070C08981282F30E03F832E838E8197
:100D40009F818230910551F12E813F812330310501
:100D500034F48E819F818130910561F0D3C02E8162
:100D60003F812330310571F18E819F81843091055F
:100D7000E9F1C8C0AAE3B0E0EAE3F0E08081482FDF
:100D80008A81282F30E081E090E0022E02C0880F97
:100D9000991F0A94E2F7842B8C93B4C0A7E3B0E0C8
:100DA000E7E3F0E08081482F8A81282F30E081E05E
:100DB00090E0022E02C0880F991F0A94E2F7842B5C
:100DC0008C93A0C0A4E3B0E0E4E3F0E08081482F7E
:100DD0008A81282F30E081E090E0022E02C0880F47
:100DE000991F0A94E2F7842B8C938CC0A1E3B0E0A6
:100DF000E1E3F0E08081482F8A81282F30E081E014
:100E000090E0022E02C0880F991F0A94E2F7842B0B
:100E10008C9378C08B81882309F074C08981282F36
:100E200030E03D832C838C819D818230910561F17E
:100E30002C813D812330310534F48C819D818130BA
:100E4000910569F05FC02C813D812330310589F126
:100E50008C819D818430910509F440C053C0AAE380
:100E6000B0E0EAE3F0E08081482F8A81282F30E06B
:100E700081E090E0022E02C0880F991F0A94E2F7E9
:100E8000809584238C933EC0A7E3B0E0E7E3F0E0D5
:100E90008081482F8A81282F30E081E090E0022E67
:100EA00002C0880F991F0A94E2F7809584238C93DF
:100EB00029C0A4E3B0E0E4E3F0E08081482F8A8118
:100EC000282F30E081E090E0022E02C0880F991FA9
:100ED0000A94E2F7809584238C9314C0A1E3B0E0D8
:100EE000E1E3F0E08081482F8A81282F30E081E023
:100EF00090E0022E02C0880F991F0A94E2F78095B5
:100F000084238C9327960FB6F894DEBF0FBECDBF17
:100F1000CF91DF910895DF93CF9300D000D0CDB76C
:100F2000DEB789836A838981282F30E03C832B8355
:100F30008B819C8182309105D9F02B813C812330BB
:100F4000310534F48B819C818130910561F01EC0A4
:100F50002B813C812330310581F08B819C81843051
:100F6000910581F013C0EBE3F0E08A8180830EC02D
:100F7000E8E3F0E08A81808309C0E5E3F0E08A815C
:100F8000808304C0E2E3F0E08A8180830F900F90B9
:100F90000F900F90CF91DF910895DF93CF93CDB74E
:100FA000DEB727970FB6F894DEBF0FBECDBF89839B
:100FB0006A834B838B81813009F070C08981282F2F
:100FC00030E03F832E838E819F818230910551F1E5
:100FD0002E813F812330310534F48E819F81813011
:100FE000910561F0D3C02E813F812330310571F12D
:100FF0008E819F8184309105E9F1C8C0ABE3B0E0F8
:10100000EBE3F0E08081482F8A81282F30E081E0F7
:1010100090E0022E02C0880F991F0A94E2F7842BF9
:101020008C93B4C0A8E3B0E0E8E3F0E08081482FFF
:101030008A81282F30E081E090E0022E02C0880FE4
:10104000991F0A94E2F7842B8C93A0C0A5E3B0E02B
:10105000E5E3F0E08081482F8A81282F30E081E0AD
:1010600090E0022E02C0880F991F0A94E2F7842BA9
:101070008C938CC0A2E3B0E0E2E3F0E08081482FE3
:101080008A81282F30E081E090E0022E02C0880F94
:10109000991F0A94E2F7842B8C9378C08B81882364
:1010A00009F074C08981282F30E03D832C838C8126
:1010B0009D818230910561F12C813D812330310584
:1010C00034F48C819D818130910569F05FC02C8161
:1010D0003D812330310589F18C819D8184309105DA
:1010E00009F440C053C0ABE3B0E0EBE3F0E0808133
:1010F000482F8A81282F30E081E090E0022E02C044
:10110000880F991F0A94E2F7809584238C933EC040
:10111000A8E3B0E0E8E3F0E08081482F8A81282F3F
:1011200030E081E090E0022E02C0880F991F0A94FF
:10113000E2F7809584238C9329C0A5E3B0E0E5E332
:10114000F0E08081482F8A81282F30E081E090E014
:10115000022E02C0880F991F0A94E2F7809584231B
:101160008C9314C0A2E3B0E0E2E3F0E08081482F6A
:101170008A81282F30E081E090E0022E02C0880FA3
:10118000991F0A94E2F7809584238C9327960FB6D3
:10119000F894DEBF0FBECDBFCF91DF910895DF93EE
:1011A000CF9300D000D0CDB7DEB78A8319828A8171
:1011B000282F30E03C832B838B819C8182309105EA
:1011C000D9F02B813C812330310534F48B819C8113
:1011D0008130910561F01EC02B813C8123303105A7
:1011E00081F08B819C818430910581F013C0E9E30B
:1011F000F0E0808189830EC0E6E3F0E0808189839E
:1012000009C0E3E3F0E08081898304C0E0E3F0E01B
:101210008081898389810F900F900F900F90CF91DB
:10122000DF910895DF93CF9300D000D00F92CDB718
:10123000DEB78A836B8319828A81282F30E03D8351
:101240002C834C815D814230510541F18C819D811F
:101250008330910534F42C813D812130310561F0DA
:1012600052C04C815D814330510551F18C819D818B
:1012700084309105B9F147C0E9E3F0E08081282F7F
:1012800030E08B81882F90E0A90102C055954795E9
:101290008A95E2F7CA018170898335C0E6E3F0E000
:1012A0008081282F30E08B81882F90E0A90102C037
:1012B000559547958A95E2F7CA018170898323C0C5
:1012C000E3E3F0E08081282F30E08B81882F90E0ED
:1012D000A90102C0559547958A95E2F7CA01817028
:1012E000898311C0E0E3F0E08081282F30E08B811A
:1012F000882F90E0A90102C0559547958A95E2F79D
:10130000CA018170898389810F900F900F900F908F
:101310000F90CF91DF9108950F931F93DF93CF9399
:10132000CDB7DEB7CC54D0400FB6F894DEBF0FBEB9
:10133000CDBF81E06FEF0E94470682E060E041E0B0
:101340000E94890682E061E041E00E94890682E015
:1013500062E041E00E948906FE01E75BFF4F80E00A
:1013600090E0A0E2B2E480839183A283B3838E01F4
:101370000B5B1F4FFE01E75BFF4F60817181828134
:10138000938120E030E04AEF54E40E941702DC0130
:10139000CB01F80180839183A283B383FE01EB5BD1
:1013A000FF4F608171818281938120E030E040E8CD
:1013B0005FE30E941D04882344F4FE01ED5BFF4FB0
:1013C00081E090E09183808364C0FE01EB5BFF4F7E
:1013D000608171818281938120E03FEF4FE757E484
:1013E0000E94BD0318160CF043C0FE01E75BFF4FDF
:1013F000608171818281938120E030E040E251E49C
:101400000E941702DC01CB018E010D5B1F4FBC0156
:10141000CD010E944100DC01CB01F8019183808362
:101420001FC0FE01EF5BFF4F88EC90E0918380834B
:10143000FE01EF5BFF4F808191810197F1F7FE0183
:10144000EF5BFF4F91838083DE01AD5BBF4FFE01F9
:10145000ED5BFF4F80819181019711969C938E9354
:10146000FE01ED5BFF4F808191810097D1F624C092
:101470008E010D5B1F4FFE01EB5BFF4F60817181A1
:10148000828193810E944100DC01CB01F8019183AC
:101490008083FE01ED5BFF4F80819181FE01FF960D
:1014A00091838083FE01FF96808191810197F1F7FE
:1014B000FE01FF969183808388E30E94620C80E0A6
:1014C00090E0A0E2B2E48BAF9CAFADAFBEAF6BAD2E
:1014D0007CAD8DAD9EAD2BEA3AEA4AE250E40E9423
:1014E0001702DC01CB018FAB98AFA9AFBAAF6FA9E0
:1014F00078AD89AD9AAD20E030E040E85FE30E942E
:101500001D0488231CF481E08EAB91C06FA978ADD7
:1015100089AD9AAD20E030E04FE753E40E94BD036F
:1015200018160CF07BC06BAD7CAD8DAD9EAD20E090
:1015300030E04AE754E40E941103DC01CB018AAB9E
:101540009BABACABBDAB6AA97BA98CA99DA920E0E4
:1015500030E04AEF54E40E941702DC01CB018EA771
:101560009FA7A8ABB9AB6EA57FA588A999A920E0D4
:1015700030E040E85FE30E941D0488232CF481E002
:1015800090E09DA78CA73FC06EA57FA588A999A9CB
:1015900020E03FEF4FE757E40E94BD0318164CF5DB
:1015A0006AA97BA98CA99DA920E030E040E251E422
:1015B0000E941702DC01CB01BC01CD010E94410059
:1015C000DC01CB019DA78CA70FC088EC90E09BA706
:1015D0008AA78AA59BA50197F1F79BA78AA78CA547
:1015E0009DA501979DA78CA78CA59DA5009769F740
:1015F00024C06EA57FA588A999A90E944100DC019D
:10160000CB019DA78CA78CA59DA599A788A788A588
:1016100099A50197F1F799A788A70FC06FA978AD91
:1016200089AD9AAD0E944100DC01CB018EAB8EA941
:101630008FA38FA18A95F1F78FA38CE00E94620C93
:1016400080E090E0A0E2B2E48BA39CA3ADA3BEA394
:101650006BA17CA18DA19EA12BEA3AEA4AE250E45B
:101660000E941702DC01CB018F8F98A3A9A3BAA314
:101670006F8D78A189A19AA120E030E040E85FE376
:101680000E941D0488231CF481E08E8F91C06F8D11
:1016900078A189A19AA120E030E04FE753E40E94AD
:1016A000BD0318160CF07BC06BA17CA18DA19EA17F
:1016B00020E030E04AE754E40E941103DC01CB0152
:1016C0008A8F9B8FAC8FBD8F6A8D7B8D8C8D9D8D0E
:1016D00020E030E04AEF54E40E941702DC01CB0125
:1016E0008E8B9F8BA88FB98F6E897F89888D998DFE
:1016F00020E030E040E85FE30E941D0488232CF4E2
:1017000081E090E09D8B8C8B3FC06E897F89888DB6
:10171000998D20E03FEF4FE757E40E94BD03181674
:101720004CF56A8D7B8D8C8D9D8D20E030E040E204
:1017300051E40E941702DC01CB01BC01CD010E94E3
:101740004100DC01CB019D8B8C8B0FC088EC90E0BD
:101750009B8B8A8B8A899B890197F1F79B8B8A8B5C
:101760008C899D8901979D8B8C8B8C899D89009795
:1017700069F724C06E897F89888D998D0E94410008
:10178000DC01CB019D8B8C8B8C899D89998B888BFF
:10179000888999890197F1F7998B888B0FC06F8D94
:1017A00078A189A19AA10E944100DC01CB018E8F12
:1017B0008E8D8F878F858A95F1F78F8781E00E94C4
:1017C000620C80E090E0A0E0B0E48B879C87AD875E
:1017D000BE876B857C858D859E8520E030E04AEF55
:1017E00054E40E941702DC01CB018F839887A987FC
:1017F000BA876F81788589859A8520E030E040E856
:101800005FE30E941D0488232CF481E090E09E8316
:101810008D833FC06F81788589859A8520E03FEF71
:101820004FE757E40E94BD0318164CF56B857C8585
:101830008D859E8520E030E040E251E40E94170251
:10184000DC01CB01BC01CD010E944100DC01CB01D8
:101850009E838D830FC088EC90E09C838B838B816B
:101860009C810197F1F79C838B838D819E810197E9
:101870009E838D838D819E81009769F714C06F814F
:10188000788589859A850E944100DC01CB019E8381
:101890008D838D819E819A83898389819A81019725
:1018A000F1F79A83898386E00E94620CC45BDF4F64
:1018B0000FB6F894DEBF0FBECDBFCF91DF911F9161
:1018C0000F910895DF93CF93CDB7DEB72F970FB663
:1018D000F894DEBF0FBECDBF8F8782E060E040E0AE
:1018E0000E94CD0782E061E040E00E94CD0781E0E8
:1018F0006F850E948B0782E062E041E00E94CD0785
:1019000080E090E0A0E0B0E48B879C87AD87BE8745
:101910006B857C858D859E8520E030E04AEF54E420
:101920000E941702DC01CB018F839887A987BA87B1
:101930006F81788589859A8520E030E040E85FE313
:101940000E941D0488232CF481E090E09E838D8307
:101950003FC06F81788589859A8520E03FEF4FE70A
:1019600057E40E94BD0318164CF56B857C858D8568
:101970009E8520E030E040E251E40E941702DC0145
:10198000CB01BC01CD010E944100DC01CB019E8353
:101990008D830FC088EC90E09C838B838B819C812E
:1019A0000197F1F79C838B838D819E8101979E83A4
:1019B0008D838D819E81009769F714C06F81788532
:1019C00089859A850E944100DC01CB019E838D832D
:1019D0008D819E819A83898389819A810197F1F70C
:1019E0009A83898382E062E040E00E94CD072F96CF
:1019F0000FB6F894DEBF0FBECDBFCF91DF91089533
:101A0000DF93CF93CDB7DEB72F970FB6F894DEBF35
:101A10000FBECDBF8F8782E060E041E00E94CD071E
:101A200082E061E040E00E94CD0781E06F850E9486
:101A30008B0782E062E041E00E94CD0780E090E009
:101A4000A0E0B0E48B879C87AD87BE876B857C85E3
:101A50008D859E8520E030E04AEF54E40E94170215
:101A6000DC01CB018F839887A987BA876F8178853E
:101A700089859A8520E030E040E85FE30E941D04FC
:101A800088232CF481E090E09E838D833FC06F819A
:101A9000788589859A8520E03FEF4FE757E40E94DB
:101AA000BD0318164CF56B857C858D859E8520E0E1
:101AB00030E040E251E40E941702DC01CB01BC019E
:101AC000CD010E944100DC01CB019E838D830FC0BC
:101AD00088EC90E09C838B838B819C810197F1F74C
:101AE0009C838B838D819E8101979E838D838D81C5
:101AF0009E81009769F714C06F81788589859A85E2
:101B00000E944100DC01CB019E838D838D819E81EB
:101B10009A83898389819A810197F1F79A838983CE
:101B200082E062E040E00E94CD072F960FB6F89465
:101B3000DEBF0FBECDBFCF91DF910895DF93CF936E
:101B4000CDB7DEB72E970FB6F894DEBF0FBECDBF70
:101B500081E00E94620C80E090E0A0E0B0E48B871E
:101B60009C87AD87BE876B857C858D859E8520E0B3
:101B700030E04AEF54E40E941702DC01CB018F836E
:101B80009887A987BA876F81788589859A8520E0AB
:101B900030E040E85FE30E941D0488232CF481E0DC
:101BA00090E09E838D833FC06F81788589859A857B
:101BB00020E03FEF4FE757E40E94BD0318164CF5B5
:101BC0006B857C858D859E8520E030E040E251E488
:101BD0000E941702DC01CB01BC01CD010E94410033
:101BE000DC01CB019E838D830FC088EC90E09C8349
:101BF0008B838B819C810197F1F79C838B838D81F3
:101C00009E8101979E838D838D819E81009769F7C8
:101C100014C06F81788589859A850E944100DC0116
:101C2000CB019E838D838D819E819A838983898157
:101C30009A810197F1F79A8389832E960FB6F894CB
:101C4000DEBF0FBECDBFCF91DF910895DF93CF935D
:101C500000D00F92CDB7DEB79B838A8319820EC066
:101C60008981282F30E08A819B81FC01E20FF31FDC
:101C700080810E94000D89818F5F89838981282F4F
:101C800030E08A819B81FC01E20FF31F8081882371
:101C900039F70F900F900F90CF91DF910895DF9358
:101CA000CF9300D000D00F92CDB7DEB78A836B837D
:101CB00019828A81282F30E03D832C838C819D817D
:101CC000009731F02C813D812130310521F006C093
:101CD0008B81898303C08B81805C89838981805853
:101CE0000E94620C0F900F900F900F900F90CF9169
:101CF000DF910895DF93CF93CDB7DEB727970FB667
:101D0000F894DEBF0FBECDBF9C838B836D834E8363
:101D10002F838D81883048F51A828D81882F90E03D
:101D2000880F991F880F991F880F991F8A838A81AE
:101D3000805C0E94620C19820EC08981282F30E0DD
:101D40008B819C81FC01E20FF31F80810E94000DBA
:101D500089818F5F89838981883078F38F816E8153
:101D60000E944F0E8D810E94000D27960FB6F894A9
:101D7000DEBF0FBECDBFCF91DF910895DF93CF932C
:101D8000CDB7DEB72D970FB6F894DEBF0FBECDBF2F
:101D90009D878C8719828C859D85009711F580E33E
:101DA0000E94000D34C08981E82FF0E08C859D856C
:101DB0002AE030E0B9010E940B1A282F205DCE01E5
:101DC0000296E80FF91F20838C859D852AE030E07C
:101DD000B9010E940B1ACB019D878C8789818F5F87
:101DE00089838C859D850097F1F60EC0898181508D
:101DF00089838981282F30E0CE010296FC01E20F11
:101E0000F31F80810E94000D8981882379F72D9628
:101E10000FB6F894DEBF0FBECDBFCF91DF9108950E
:101E20000F931F93DF93CF93CDB7DEB7C353D1404A
:101E30000FB6F894DEBF0FBECDBF0E948C09CE0155
:101E40008D579F4FCD50DF4F99838883C35FD0401C
:101E500086EF90E0CB50DF4F99838883C55FD040F9
:101E600098E0C950DF4F9883C75FD040CB50DF4F19
:101E7000A881B981C55FD0400C90CB50DF4FE8817D
:101E8000F981C55FD0403196CB50DF4FF983E883AD
:101E9000C55FD040CD50DF4FA881B981C35FD0402E
:101EA0000C92CD50DF4FE881F981C35FD04031966D
:101EB000CD50DF4FF983E883C35FD040C950DF4F77
:101EC000F881C75FD040F150C950DF4FF883C75F3A
:101ED000D040C950DF4F8881C75FD040882331F69A
:101EE000CE0185579F4FC850DF4F99838883C85FC5
:101EF000D040AEEEB0E0C650DF4FB983A883CA5FD2
:101F0000D040B8E0C450DF4FB883CC5FD040C6505B
:101F1000DF4FE881F981CA5FD0400080C650DF4FB3
:101F200088819981CA5FD0400196C650DF4F99835E
:101F30008883CA5FD040C850DF4FA881B981C85F8D
:101F4000D0400C92C850DF4FE881F981C85FD04083
:101F50003196C850DF4FF983E883C85FD040C45042
:101F6000DF4FF881CC5FD040F150C450DF4FF88391
:101F7000CC5FD040C450DF4F8881CC5FD0408823F5
:101F800031F6CE018D569F4F28E0FC01DF01822FF4
:101F90001D928A95E9F7FE01ED56FF4F8FE7848386
:101FA000CE0185569F4FC350DF4F99838883CD5F05
:101FB000D040A6EEB0E0C150DF4FB983A883CF5F19
:101FC000D040B8E0CF5FDE4FB883C150D140C150A0
:101FD000DF4FE881F981CF5FD0400080C150DF4FF3
:101FE00088819981CF5FD0400196C150DF4F99839E
:101FF0008883CF5FD040C350DF4FA881B981CD5FC8
:10200000D0400C92C350DF4FE881F981CD5FD040C2
:102010003196C350DF4FF983E883CD5FD040CF5F67
:10202000DE4FF881C150D140F150CF5FDE4FF883D1
:10203000C150D140CF5FDE4F8881C150D14088234D
:1020400031F6CE018D559F4FCE5FDE4F9983888349
:10205000C250D140AEEDB0E0CC5FDE4FB983A88373
:10206000C450D140B8E0CA5FDE4FB883C650D140FB
:10207000CC5FDE4FE881F981C450D1400080CC5F55
:10208000DE4F88819981C450D1400196CC5FDE4FEC
:1020900099838883C450D140CE5FDE4FA881B98137
:1020A000C250D1400C92CE5FDE4FE881F981C25020
:1020B000D1403196CE5FDE4FF983E883C250D140E4
:1020C000CA5FDE4FF881C650D140F150CA5FDE4F83
:1020D000F883C650D140CA5FDE4F8881C650D140D8
:1020E000882331F6CE0185559F4FC95FDE4F998316
:1020F0008883C750D140A6EDB0E0C75FDE4FB983FB
:10210000A883C950D140B8E0C55FDE4FB883CB503B
:10211000D140C75FDE4FE881F981C950D1400080CE
:10212000C75FDE4F88819981C950D1400196C75F52
:10213000DE4F99838883C950D140C95FDE4FA881A3
:10214000B981C750D1400C92C95FDE4FE881F98157
:10215000C750D1403196C95FDE4FF983E883C7503D
:10216000D140C55FDE4FF881CB50D140F150C55F03
:10217000DE4FF883CB50D140C55FDE4F8881CB5016
:10218000D140882331F6FE01EE57FF4F1082FE0149
:10219000EF57FF4F108241C10E949E0DFE01EE5786
:1021A000FF4F9FE08081292F281BCE018D579F4F25
:1021B000FE01EF57FF4F61E0422F20810E947A0E0F
:1021C000FE01EE57FF4F9EE08081292F281BCE0194
:1021D00085579F4FFE01EF57FF4F62E0422F20814E
:1021E0000E947A0EFE01EE57FF4F9DE08081292F5D
:1021F000281BCE018D569F4FFE01EF57FF4F63E026
:10220000422F20810E947A0EFE01EE57FF4F9CE084
:102210008081292F281BCE0185569F4FFE01EF5745
:10222000FF4F64E0422F20810E947A0EFE01EE579C
:10223000FF4F9BE08081292F281BCE018D559F4F9A
:10224000FE01EF57FF4F65E0422F20810E947A0E7A
:10225000FE01EE57FF4F9AE08081292F281BCE0107
:1022600085559F4FFE01EF57FF4F66E0422F2081BB
:102270000E947A0EFE01E558FF4F80E090E0AAEF41
:10228000B3E480839183A283B3838E0109581F4FE7
:10229000FE01E558FF4F608171818281938120E0CA
:1022A00030E04AEF54E40E941702DC01CB01F80150
:1022B00080839183A283B383FE01E958FF4F60813D
:1022C00071818281938120E030E040E85FE30E94E9
:1022D0001D04882344F4FE01EB58FF4F81E090E099
:1022E0009183808364C0FE01E958FF4F6081718152
:1022F0008281938120E03FEF4FE757E40E94BD03C6
:1023000018160CF043C0FE01E558FF4F6081718143
:102310008281938120E030E040E251E40E94170284
:10232000DC01CB018E010B581F4FBC01CD010E9477
:102330004100DC01CB01F801918380831FC0FE01C5
:10234000ED58FF4F88EC90E091838083FE01ED58BB
:10235000FF4F808191810197F1F7FE01ED58FF4F0A
:1023600091838083DE01AB58BF4FFE01EB58FF4FD6
:1023700080819181019711969C938E93FE01EB5879
:10238000FF4F808191810097D1F628C08E010B58B4
:102390001F4FFE01E958FF4F608171818281938157
:1023A0000E944100DC01CB01F80191838083DE01B2
:1023B000AF58BF4FFE01EB58FF4F808191811196BE
:1023C0009C938E93FE01EF58FF4F8081918101977E
:1023D000F1F7FE01EF58FF4F91838083FE01EF5725
:1023E000FF4F8081882331F4FE01EF57FF4F81E0DA
:1023F00080830AC0FE01EF57FF4F8081813021F4B6
:10240000FE01EF57FF4F1082DE01AE57BF4FFE01B6
:10241000EE57FF4F80818E5F8C93FE01EE57FF4F8A
:1024200080818B3008F4B8CE0E949E0DCE018D5471
:102430009F4FC45FDE4F99838883CC50D1408EEC90
:1024400090E0C25FDE4F99838883CE50D14098E000
:10245000C05FDE4F9883C051D140C25FDE4FA8817C
:10246000B981CE50D1400C90C25FDE4FE881F98136
:10247000CE50D1403196C25FDE4FF983E883CE5013
:10248000D140C45FDE4FA881B981CC50D1400C92BD
:10249000C45FDE4FE881F981CC50D1403196C45FF2
:1024A000DE4FF983E883CC50D140C05FDE4FF88126
:1024B000C051D140F150C05FDE4FF883C051D140D0
:1024C000C05FDE4F8881C051D140882331F6CE01F4
:1024D00085549F4FCF5EDE4F99838883C151D14091
:1024E000A6ECB0E0CD5EDE4FB983A883C351D140E6
:1024F000B8E0CB5EDE4FB883C551D140CD5EDE4F34
:10250000E881F981C351D1400080CD5EDE4F8881E2
:102510009981C351D1400196CD5EDE4F9983888366
:10252000C351D140CF5EDE4FA881B981C151D140A6
:102530000C92CF5EDE4FE881F981C151D1403196D6
:10254000CF5EDE4FF983E883C151D140CB5EDE4FD1
:10255000F881C551D140F150CB5EDE4FF883C551B3
:10256000D140CB5EDE4F8881C551D140882331F602
:10257000CE018D539F4FCA5EDE4F99838883C6512B
:10258000D140AEEBB0E0C85EDE4FB983A883C8513E
:10259000D140B8E0C65EDE4FB883CA51D140C85EB4
:1025A000DE4FE881F981C851D1400080C85EDE4F1E
:1025B00088819981C851D1400196C85EDE4F9983C8
:1025C0008883C851D140CA5EDE4FA881B981C65107
:1025D000D1400C92CA5EDE4FE881F981C651D140EC
:1025E0003196CA5EDE4FF983E883C651D140C65E9C
:1025F000DE4FF881CA51D140F150C65EDE4FF883FC
:10260000CA51D140C65EDE4F8881CA51D14088236D
:1026100031F6CE0185539F4FC55EDE4F9983888387
:10262000CB51D140A6EBB0E0C35EDE4FB983A883A7
:10263000CD51D140B8E0C15EDE4FB883CF51D1401B
:10264000C35EDE4FE881F981CD51D1400080C35E89
:10265000DE4F88819981CD51D1400196C35EDE4F16
:1026600099838883CD51D140C55EDE4FA881B98161
:10267000CB51D1400C92C55EDE4FE881F981CB5140
:10268000D1403196C55EDE4FF983E883CB51D1400E
:10269000C15EDE4FF881CF51D140F150C15EDE4FB7
:1026A000F883CF51D140C15EDE4F8881CF51D140F8
:1026B000882331F6CE018D529F4FC05EDE4F998345
:1026C0008883C052D140AEEAB0E0CE5DDE4FB98320
:1026D000A883C252D140B8E0CC5DDE4FB883C4526B
:1026E000D140CE5DDE4FE881F981C252D1400080F9
:1026F000CE5DDE4F88819981C252D1400196CE5D78
:10270000DE4F99838883C252D140C05EDE4FA881DC
:10271000B981C052D1400C92C05EDE4FE881F98190
:10272000C052D1403196C05EDE4FF983E883C0527B
:10273000D140CC5DDE4FF881C452D140F150CC5D28
:10274000DE4FF883C452D140CC5DDE4F8881C45245
:10275000D140882331F6CE0185529F4FCB5DDE4FAD
:1027600099838883C552D140A6EAB0E0C95DDE4FA7
:10277000B983A883C752D140B8E0C75DDE4FB883A4
:10278000C952D140C95DDE4FE881F981C752D140BD
:102790000080C95DDE4F88819981C752D140019682
:1027A000C95DDE4F99838883C752D140CB5DDE4F30
:1027B000A881B981C552D1400C92CB5DDE4FE88132
:1027C000F981C552D1403196CB5DDE4FF983E88364
:1027D000C552D140C75DDE4FF881C952D140F1509A
:1027E000C75DDE4FF883C952D140C75DDE4F888197
:1027F000C952D140882331F6CE018D519F4FC65D1D
:10280000DE4F99838883CA52D140AEE9B0E0C45DFF
:10281000DE4FB983A883CC52D140B8E0C25DDE4F11
:10282000B883CE52D140C45DDE4FE881F981CC52ED
:10283000D1400080C45DDE4F88819981CC52D14067
:102840000196C45DDE4F99838883CC52D140C65D2A
:10285000DE4FA881B981CA52D1400C92C65DDE4FCD
:10286000E881F981CA52D1403196C65DDE4FF983C5
:10287000E883CA52D140C25DDE4FF881CE52D140CA
:10288000F150C25DDE4FF883CE52D140C25DDE4FC3
:102890008881CE52D140882331F6CE0185519F4F99
:1028A000C15DDE4F99838883CF52D140A6E9B0E065
:1028B000CF5CDE4FB983A883C153D140B8E0CD5C73
:1028C000DE4FB883C353D140CF5CDE4FE881F9813E
:1028D000C153D1400080CF5CDE4F88819981C153C4
:1028E000D1400196CF5CDE4F99838883C153D1409C
:1028F000C15DDE4FA881B981CF52D1400C92C15D3C
:10290000DE4FE881F981CF52D1403196C15DDE4F73
:10291000F983E883CF52D140CD5CDE4FF881C353B9
:10292000D140F150CD5CDE4FF883C353D140CD5C34
:10293000DE4F8881C353D140882331F680E690E092
:102940000E94260EFE01E359FF4F80E090E0A1EEC9
:10295000B3E480839183A283B3838E0107591F4F11
:10296000FE01E359FF4F608171818281938120E0F4
:1029700030E04AEF54E40E941702DC01CB01F80179
:1029800080839183A283B383FE01E759FF4F608167
:1029900071818281938120E030E040E85FE30E9412
:1029A0001D04882344F4FE01E959FF4F81E090E0C3
:1029B0009183808364C0FE01E759FF4F608171817C
:1029C0008281938120E03FEF4FE757E40E94BD03EF
:1029D00018160CF043C0FE01E359FF4F608171816E
:1029E0008281938120E030E040E251E40E941702AE
:1029F000DC01CB018E0109591F4FBC01CD010E94A2
:102A00004100DC01CB01F801918380831FC0FE01EE
:102A1000EB59FF4F88EC90E091838083FE01EB59E6
:102A2000FF4F808191810197F1F7FE01EB59FF4F34
:102A300091838083DE01A959BF4FFE01E959FF4F01
:102A400080819181019711969C938E93FE01E959A3
:102A5000FF4F808191810097D1F627C08E010959DF
:102A60001F4FFE01E759FF4F608171818281938181
:102A70000E944100DC01CB01F80191838083DE01DB
:102A8000AD59BF4FFE01E959FF4F808191818D9370
:102A90009C93FE01ED59FF4F808191810197F1F7E1
:102AA000FE01ED59FF4F918380830E949E0DFE0130
:102AB000E058FF4F1082F5C00E949E0DFE01E058C5
:102AC000FF4F8081882F90E0817090700097B9F45B
:102AD000CE018D549F4FFE01E058FF4F60E04081D2
:102AE00020E00E947A0ECE0185539F4FFE01E058F0
:102AF000FF4F61E0408121E00E947A0E16C0CE01B6
:102B000085549F4FFE01E058FF4F60E0408120E078
:102B10000E947A0ECE018D529F4FFE01E058FF4F6A
:102B200061E0408121E00E947A0EFE01E15AFF4FF0
:102B300080E090E0A6E1B3E480839183A283B38335
:102B40008E01055A1F4FFE01E15AFF4F60817181CE
:102B50008281938120E030E04AEF54E40E94170222
:102B6000DC01CB01F80180839183A283B383FE0152
:102B7000E55AFF4F608171818281938120E030E0CE
:102B800040E85FE30E941D04882344F4FE01E75AF5
:102B9000FF4F81E090E09183808364C0FE01E55A9D
:102BA000FF4F608171818281938120E03FEF4FE789
:102BB00057E40E94BD0318160CF043C0FE01E15A11
:102BC000FF4F608171818281938120E030E040E29B
:102BD00051E40E941702DC01CB018E01075A1F4FFE
:102BE000BC01CD010E944100DC01CB01F8019183C1
:102BF00080831FC0FE01E95AFF4F88EC90E091836B
:102C00008083FE01E95AFF4F808191810197F1F79E
:102C1000FE01E95AFF4F91838083DE01A75ABF4F1F
:102C2000FE01E75AFF4F80819181019711969C9395
:102C30008E93FE01E75AFF4F808191810097D1F674
:102C400027C08E01075A1F4FFE01E55AFF4F6081D2
:102C50007181828193810E944100DC01CB01F801E6
:102C600091838083DE01AB5ABF4FFE01E75AFF4FCD
:102C7000808191818D939C93FE01EB5AFF4F80815F
:102C800091810197F1F7FE01EB5AFF4F9183808309
:102C9000DE01A058BF4FFE01E058FF4F80818F5FDB
:102CA0008C93FE01E058FF4F8081803108F404CFFF
:102CB0000E949E0D8BE690E00E94260E81E060E06F
:102CC0000E944F0E88E790E00E94260EFE01EF5A08
:102CD000FF4F80E090E0A1EEB3E480839183A28374
:102CE000B3838E01035B1F4FFE01EF5AFF4F6081DC
:102CF00071818281938120E030E04AEF54E40E94A8
:102D00001702DC01CB01F80180839183A283B38396
:102D1000FE01E35BFF4F608171818281938120E03E
:102D200030E040E85FE30E941D04882344F4FE0184
:102D3000E55BFF4F81E090E09183808364C0FE01FA
:102D4000E35BFF4F608171818281938120E03FEFDF
:102D50004FE757E40E94BD0318160CF043C0FE0174
:102D6000EF5AFF4F608171818281938120E030E0D2
:102D700040E251E40E941702DC01CB018E01055BA9
:102D80001F4FBC01CD010E944100DC01CB01F801C5
:102D9000918380831FC0FE01E75BFF4F88EC90E0CA
:102DA00091838083FE01E75BFF4F808191810197D2
:102DB000F1F7FE01E75BFF4F91838083DE01A55BA6
:102DC000BF4FFE01E55BFF4F808191810197119616
:102DD0009C938E93FE01E55BFF4F8081918100976C
:102DE000D1F627C08E01055B1F4FFE01E35BFF4F4D
:102DF00060817181828193810E944100DC01CB015D
:102E0000F80191838083DE01A95BBF4FFE01E55B82
:102E1000FF4F808191818D939C93FE01E95BFF4F71
:102E2000808191810197F1F7FE01E95BFF4F91836A
:102E300080830E949E0DFE01E158FF4F1082E3C087
:102E40000E949E0DFE01E158FF4F8081882F90E087
:102E500081709070009729F5CE018D549F4FFE012F
:102E6000E158FF4F60E0408120E00E947A0ECE01E1
:102E700085539F4FFE01E158FF4F61E0408121E003
:102E80000E947A0EFE01E158FF4F8081282F2F5FAC
:102E9000CE0185519F4F62E0422F21E00E947A0EC1
:102EA00024C0CE0185549F4FFE01E158FF4F60E0E2
:102EB000408120E00E947A0ECE018D529F4FFE018C
:102EC000E158FF4F61E0408121E00E947A0EFE014F
:102ED000E158FF4F8081282F2F5FCE0185519F4FF2
:102EE00062E0422F21E00E947A0EFE01ED5BFF4F6F
:102EF00080E090E0A6E1B3E480839183A283B38372
:102F00008E01015C1F4FFE01ED5BFF4F60817181FF
:102F10008281938120E030E04AEF54E40E9417025E
:102F2000DC01CB01F80180839183A283B383FE018E
:102F3000FF96608171818281938120E030E040E8DA
:102F40005FE30E941D0488232CF481E090E09EAF93
:102F50008DAF46C0FE01FF966081718182819381B1
:102F600020E03FEF4FE757E40E94BD03181664F5D9
:102F7000FE01ED5BFF4F608171818281938120E0D2
:102F800030E040E251E40E941702DC01CB01BC01B9
:102F9000CD010E944100DC01CB019EAF8DAF0FC07F
:102FA00088EC90E09CAF8BAF8BAD9CAD0197F1F7B7
:102FB0009CAF8BAF8DAD9EAD01979EAF8DAF8DADAC
:102FC0009EAD009769F716C0FE01FF966081718182
:102FD000828193810E944100DC01CB019EAF8DAFC5
:102FE0008DAD9EAD9AAF89AF89AD9AAD0197F1F7DE
:102FF0009AAF89AFDE01A158BF4FFE01E158FF4FE4
:1030000080818F5F8C93FE01E158FF4F808180317A
:1030100008F416CF0E949E0D81E890E00E94260ED3
:1030200080E090E0A1EEB3E48DAB9EABAFABB8AF68
:103030006DA97EA98FA998AD20E030E04AEF54E455
:103040000E941702DC01CB0189AB9AABABABBCABE6
:1030500069A97AA98BA99CA920E030E040E85FE348
:103060000E941D0488232CF481E090E098AB8FA788
:103070003FC069A97AA98BA99CA920E03FEF4FE73F
:1030800057E40E94BD0318164CF56DA97EA98FA9BF
:1030900098AD20E030E040E251E40E941702DC01EC
:1030A000CB01BC01CD010E944100DC01CB0198ABFA
:1030B0008FA70FC088EC90E09EA78DA78DA59EA539
:1030C0000197F1F79EA78DA78FA598A9019798ABB7
:1030D0008FA78FA598A9009769F714C069A97AA945
:1030E0008BA99CA90E944100DC01CB0198AB8FA762
:1030F0008FA598A99CA78BA78BA59CA50197F1F7F5
:103100009CA78BA70E949E0DCE018D549F4F60E01F
:1031100047E020E00E947A0ECE0185539F4F61E088
:1031200047E021E00E947A0E80E090E0A6E1B3E45F
:103130008FA398A7A9A7BAA76FA178A589A59AA5D3
:1031400020E030E04AEF54E40E941702DC01CB019A
:103150008BA39CA3ADA3BEA36BA17CA18DA19EA1BB
:1031600020E030E040E85FE30E941D0488232CF457
:1031700081E090E09AA389A33FC06BA17CA18DA1BF
:103180009EA120E03FEF4FE757E40E94BD031816D1
:103190004CF56FA178A589A59AA520E030E040E222
:1031A00051E40E941702DC01CB01BC01CD010E9459
:1031B0004100DC01CB019AA389A30FC088EC90E009
:1031C00098A38F8F8F8D98A10197F1F798A38F8F78
:1031D00089A19AA101979AA389A389A19AA100978D
:1031E00069F714C06BA17CA18DA19EA10E94410032
:1031F000DC01CB019AA389A389A19AA19E8F8D8F0F
:103200008D8D9E8D0197F1F79E8F8D8FCE018D5301
:103210009F4F60E047E020E00E947A0ECE01855289
:103220009F4F61E047E021E00E947A0E80E090E04D
:10323000A6E1B3E4898F9A8FAB8FBC8F698D7A8DAD
:103240008B8D9C8D20E030E04AEF54E40E94170201
:10325000DC01CB018D8B9E8BAF8BB88F6D897E8906
:103260008F89988D20E030E040E85FE30E941D04E4
:1032700088232CF481E090E09C8B8B8B3FC06D8980
:103280007E898F89988D20E03FEF4FE757E40E94B9
:10329000BD0318164CF5698D7A8D8B8D9C8D20E0C1
:1032A00030E040E251E40E941702DC01CB01BC0196
:1032B000CD010E944100DC01CB019C8B8B8B0FC0A8
:1032C00088EC90E09A8B898B89899A890197F1F72C
:1032D0009A8B898B8B899C8901979C8B8B8B8B8993
:1032E0009C89009769F714C06D897E898F89988DB4
:1032F0000E944100DC01CB019C8B8B8B8B899C89CC
:10330000988B8F878F8598890197F1F7988B8F8796
:10331000CE018D539F4F60E047E020E00E947A0E7F
:10332000CE018D519F4F61E047E021E00E947A0E6F
:1033300080E090E0A6E1B3E48B879C87AD87BE87F1
:103340006B857C858D859E8520E030E04AEF54E4D6
:103350000E941702DC01CB018F839887A987BA8767
:103360006F81788589859A8520E030E040E85FE3C9
:103370000E941D0488232CF481E090E09E838D83BD
:103380003FC06F81788589859A8520E03FEF4FE7C0
:1033900057E40E94BD0318164CF56B857C858D851E
:1033A0009E8520E030E040E251E40E941702DC01FB
:1033B000CB01BC01CD010E944100DC01CB019E8309
:1033C0008D830FC088EC90E09C838B838B819C81E4
:1033D0000197F1F79C838B838D819E8101979E835A
:1033E0008D838D819E81009769F78ECE6F81788560
:1033F00089859A850E944100DC01CB019E838D83E3
:103400008D819E819A83898389819A810197F1F7C1
:103410009A83898379CEAA1BBB1B51E107C0AA1FDF
:10342000BB1FA617B70710F0A61BB70B881F991F65
:103430005A95A9F780959095BC01CD0108952F92DA
:103440003F924F925F926F927F928F929F92AF9234
:10345000BF92CF92DF92EF92FF920F931F93CF9381
:10346000DF93CDB7DEB7CA1BDB0B0FB6F894DEBF18
:103470000FBECDBF09942A88398848885F846E843E
:103480007D848C849B84AA84B984C884DF80EE8088
:10349000FD800C811B81AA81B981CE0FD11D0FB691
:1034A000F894DEBF0FBECDBFED010895F894FFCFB5
:1034B00049542043414E2052554E00495420434127
:1034C0004E20504C41592000464F4F5442414C4CE5
:1034D0000049542043414E2044414E4345000000E2
:1034E000000000000000000000000E110E000404A7
:1034F00004040A090808040404040A120202040469
:1035000004040A0A0A0A040404040A1111110E111F
:1035100011041F0404000E1111040E0E0E000E11F2
:1035200011040E1515000004111111111F000000E7
:1035300001017F000A00000000001F111F000000B1
:0E3540001515FF000000101011111F000A00E9
:00000001FF
